{
  "_format": "hh-sol-artifact-1",
  "contractName": "Calculator",
  "sourceName": "contracts/Calculator.sol",
  "abi": [
    {
      "inputs": [
        {
          "internalType": "uint256",
          "name": "a",
          "type": "uint256"
        },
        {
          "internalType": "uint256",
          "name": "b",
          "type": "uint256"
        }
      ],
      "name": "add",
      "outputs": [],
      "stateMutability": "nonpayable",
      "type": "function"
    },
    {
      "inputs": [
        {
          "internalType": "uint256",
          "name": "a",
          "type": "uint256"
        },
        {
          "internalType": "uint256",
          "name": "b",
          "type": "uint256"
        }
      ],
      "name": "divide",
      "outputs": [],
      "stateMutability": "nonpayable",
      "type": "function"
    },
    {
      "inputs": [],
      "name": "getResult",
      "outputs": [
        {
          "internalType": "uint256",
          "name": "",
          "type": "uint256"
        }
      ],
      "stateMutability": "view",
      "type": "function"
    },
    {
      "inputs": [
        {
          "internalType": "uint256",
          "name": "a",
          "type": "uint256"
        },
        {
          "internalType": "uint256",
          "name": "b",
          "type": "uint256"
        }
      ],
      "name": "multiply",
      "outputs": [],
      "stateMutability": "nonpayable",
      "type": "function"
    },
    {
      "inputs": [],
      "name": "result",
      "outputs": [
        {
          "internalType": "uint256",
          "name": "",
          "type": "uint256"
        }
      ],
      "stateMutability": "view",
      "type": "function"
    },
    {
      "inputs": [
        {
          "internalType": "uint256",
          "name": "a",
          "type": "uint256"
        },
        {
          "internalType": "uint256",
          "name": "b",
          "type": "uint256"
        }
      ],
      "name": "subtract",
      "outputs": [],
      "stateMutability": "nonpayable",
      "type": "function"
    }
  ],
  "bytecode": "0x6080604052348015600f57600080fd5b506104fd8061001f6000396000f3fe608060405234801561001057600080fd5b50600436106100625760003560e01c8063165c4a16146100675780633ef5e44514610083578063653721471461009f578063771602f7146100bd578063de292789146100d9578063f88e9fbf146100f7575b600080fd5b610081600480360381019061007c919061023b565b610113565b005b61009d6004803603810190610098919061023b565b610129565b005b6100a7610182565b6040516100b4919061028a565b60405180910390f35b6100d760048036038101906100d2919061023b565b610188565b005b6100e161019e565b6040516100ee919061028a565b60405180910390f35b610111600480360381019061010c919061023b565b6101a7565b005b808261011f91906102d4565b6000819055505050565b8082101561016c576040517f08c379a000000000000000000000000000000000000000000000000000000000815260040161016390610373565b60405180910390fd5b80826101789190610393565b6000819055505050565b60005481565b808261019491906103c7565b6000819055505050565b60008054905090565b600081116101ea576040517f08c379a00000000000000000000000000000000000000000000000000000000081526004016101e190610447565b60405180910390fd5b80826101f69190610496565b6000819055505050565b600080fd5b6000819050919050565b61021881610205565b811461022357600080fd5b50565b6000813590506102358161020f565b92915050565b6000806040838503121561025257610251610200565b5b600061026085828601610226565b925050602061027185828601610226565b9150509250929050565b61028481610205565b82525050565b600060208201905061029f600083018461027b565b92915050565b7f4e487b7100000000000000000000000000000000000000000000000000000000600052601160045260246000fd5b60006102df82610205565b91506102ea83610205565b92508282026102f881610205565b9150828204841483151761030f5761030e6102a5565b5b5092915050565b600082825260208201905092915050565b7f526573756c7420776f756c64206265206e656761746976650000000000000000600082015250565b600061035d601883610316565b915061036882610327565b602082019050919050565b6000602082019050818103600083015261038c81610350565b9050919050565b600061039e82610205565b91506103a983610205565b92508282039050818111156103c1576103c06102a5565b5b92915050565b60006103d282610205565b91506103dd83610205565b92508282019050808211156103f5576103f46102a5565b5b92915050565b7f43616e6e6f7420646976696465206279207a65726f0000000000000000000000600082015250565b6000610431601583610316565b915061043c826103fb565b602082019050919050565b6000602082019050818103600083015261046081610424565b9050919050565b7f4e487b7100000000000000000000000000000000000000000000000000000000600052601260045260246000fd5b60006104a182610205565b91506104ac83610205565b9250826104bc576104bb610467565b5b82820490509291505056fea264697066735822122015b6020950e267415c1b8bf2783f89cb7c0d6565da32ee97d80ee32d7b9bedba64736f6c634300081c0033",
  "linkReferences": {},
  "deployedLinkReferences": {}
}